:1000000071C0000090C000008EC000008CC00000D5
:100010008AC000000C94260C0C94F80B84C00000DD
:1000200082C0000080C000007EC000007CC00000D4
:100030007AC0000078C0000076C0000074C00000E4
:1000400072C0000070C000006EC000006CC00000F4
:100050006AC0000068C0000066C0000064C0000004
:1000600062C0000060C000005EC000005CC0000014
:100070005AC0000058C0000056C0000054C0000024
:1000800052C0000050C000004EC000004CC0000034
:100090004AC0000048C0000046C0000044C0000044
:1000A00042C0000040C000003EC000003CC0000054
:1000B0003AC0000038C0000036C0000034C0000064
:1000C00032C0000030C000002EC000002CC0000074
:1000D0002AC0000028C0000026C0000024C0000084
:1000E00022C0000011241FBECFEFD1E2DEBFCDBF82
:1000F00000E00CBF12E0A0E0B2E0EEE8F3E200E0C6
:100100000BBF02C007900D92A631B107D9F722E0CC
:10011000A6E1B2E001C01D92A433B207E1F70E944C
:10012000920E0C94C5116CCF0F931F93CF93DF9356
:10013000CDB7DEB7C057D1090FB6F894DEBF0FBEFA
:10014000CDBF80E090E0A0E8BFE389839A83AB83D2
:10015000BC838E0109591F4F26E636E646E655E474
:1001600069817A818B819C810E945311DC01CB01D2
:10017000F80180839183A283B383CE0189599F4F75
:1001800020E030E040E85FE3FC0160817181828122
:1001900093810E94051088234CF4CE0185599F4F0E
:1001A00021E030E0FC013183208369C0CE01895910
:1001B0009F4F20E03FEF4FE757E4FC0160817181E2
:1001C000828193810E944F1118160CF046C020E0E6
:1001D00030E040E251E469817A818B819C810E9408
:1001E0005311DC01CB018E0105591F4FBC01CD011C
:1001F0000E947110DC01CB01F8019183808324C03F
:10020000CE0183599F4F20E731E0FC0131832083E9
:10021000CE0183599F4FFC01808191810197F1F7B5
:100220009E0123593F4FF90191838083CE01855967
:100230009F4F9E0125593F4FF90120813181215067
:100240003109FC0131832083CE0185599F4FFC0188
:1002500080819181892BA1F62CC08E0105591F4FF9
:10026000CE0189599F4FFC01608171818281938108
:100270000E947110DC01CB01F80191838083CE01D3
:1002800081599F4F9E0125593F4FF90120813181AE
:10029000FC0131832083CE0181599F4FFC01808175
:1002A00091810197F1F79E0121593F4FF901918307
:1002B000808388E290E028E230E0F90120812E7FFF
:1002C000FC01208388E290E028E230E0F9012081FF
:1002D0002D7FFC01208388E290E020E3FC01208355
:1002E00088E290E028E230E0F90120812460FC01FE
:1002F000208380E090E0A0EAB0E48D839E83AF830A
:10030000B8878E01035A1F4F26E636E646E655E4C7
:100310006D817E818F8198850E945311DC01CB0114
:10032000F80180839183A283B383CE01835A9F4FC8
:1003300020E030E040E85FE3FC0160817181828170
:1003400093810E94051088234CF4CE018F599F4F52
:1003500021E030E0FC013183208369C0CE01835A63
:100360009F4F20E03FEF4FE757E4FC016081718130
:10037000828193810E944F1118160CF046C020E034
:1003800030E040E251E46D817E818F8198850E944A
:100390005311DC01CB018E010F591F4FBC01CD0160
:1003A0000E947110DC01CB01F8019183808324C08D
:1003B000CE018D599F4F20E731E0FC01318320832E
:1003C000CE018D599F4FFC01808191810197F1F7FA
:1003D0009E012D593F4FF90191838083CE018F59A2
:1003E0009F4F9E012F593F4FF901208131812150AC
:1003F0003109FC0131832083CE018F599F4FFC01CD
:1004000080819181892BA1F62CC08E010F591F4F3D
:10041000CE01835A9F4FFC0160817181828193815B
:100420000E947110DC01CB01F80191838083CE0121
:100430008B599F4F9E012F593F4FF90120813181E8
:10044000FC0131832083CE018B599F4FFC018081B9
:1004500091810197F1F79E012B593F4FF90191834B
:10046000808388E290E028E230E0F90120812B7F50
:10047000FC01208380E090E0A0E8BFE389879A87B1
:10048000AB87BC878E010D5A1F4F26E636E646E63F
:1004900055E469857A858B859C850E945311DC0122
:1004A000CB01F80180839183A283B383CE018D5A5F
:1004B0009F4F20E030E040E85FE3FC016081718104
:1004C000828193810E94051088234CF4CE01895AC1
:1004D0009F4F21E030E0FC013183208369C0CE01D1
:1004E0008D5A9F4F20E03FEF4FE757E4FC016081BA
:1004F0007181828193810E944F1118160CF046C0C1
:1005000020E030E040E251E469857A858B859C8566
:100510000E945311DC01CB018E01095A1F4FBC010F
:10052000CD010E947110DC01CB01F8019183808321
:1005300024C0CE01875A9F4F20E731E0FC01318370
:100540002083CE01875A9F4FFC01808191810197C2
:10055000F1F79E01275A3F4FF90191838083CE0125
:10056000895A9F4F9E01295A3F4FF90120813181BD
:1005700021503109FC0131832083CE01895A9F4FDC
:10058000FC0180819181892BA1F62CC08E01095A32
:100590001F4FCE018D5A9F4FFC0160817181828176
:1005A00093810E947110DC01CB01F801918380835B
:1005B000CE01855A9F4F9E01295A3F4FF901208154
:1005C0003181FC0131832083CE01855A9F4FFC018C
:1005D000808191810197F1F79E01255A3F4FF901E2
:1005E0009183808388E290E028E230E0F901208165
:1005F0002E7FFC01208388E290E028E230E0F901C0
:1006000020812D7FFC01208388E290E020E3FC0123
:10061000208388E290E028E230E0F9012081246024
:10062000FC01208380E090E0A0EAB0E48D879E8703
:10063000AF87B88B8E01075B1F4F26E636E646E68E
:1006400055E46D857E858F8598890E945311DC0164
:10065000CB01F80180839183A283B383CE01875BB2
:100660009F4F20E030E040E85FE3FC016081718152
:10067000828193810E94051088234CF4CE01835B14
:100680009F4F21E030E0FC013183208369C0CE011F
:10069000875B9F4F20E03FEF4FE757E4FC0160810D
:1006A0007181828193810E944F1118160CF046C00F
:1006B00020E030E040E251E46D857E858F859889A9
:1006C0000E945311DC01CB018E01035B1F4FBC0163
:1006D000CD010E947110DC01CB01F8019183808370
:1006E00024C0CE01815B9F4F20E731E0FC013183C4
:1006F0002083CE01815B9F4FFC0180819181019716
:10070000F1F79E01215B3F4FF90191838083CE0178
:10071000835B9F4F9E01235B3F4FF9012081318115
:1007200021503109FC0131832083CE01835B9F4F2F
:10073000FC0180819181892BA1F62CC08E01035B85
:100740001F4FCE01875B9F4FFC01608171818281C9
:1007500093810E947110DC01CB01F80191838083A9
:10076000CE018F5A9F4F9E01235B3F4FF90120819D
:100770003181FC0131832083CE018F5A9F4FFC01D0
:10078000808191810197F1F79E012F5A3F4FF90126
:100790009183808388E290E028E230E0F9012081B3
:1007A0002B7FFC01208380E090E0A0E8BFE3898BF1
:1007B0009A8BAB8BBC8B8E01015C1F4F26E636E615
:1007C00046E655E469897A898B899C890E94531190
:1007D000DC01CB01F80180839183A283B383CE0136
:1007E000CF9620E030E040E85FE3FC01608171815A
:1007F000828193810E94051088234CF4CE018D5B89
:100800009F4F21E030E0FC013183208367C0CE019F
:10081000CF9620E03FEF4FE757E4FC016081718104
:10082000828193810E944F1118160CF046C020E07F
:1008300030E040E251E469897A898B899C890E9481
:100840005311DC01CB018E010D5B1F4FBC01CD01AB
:100850000E947110DC01CB01F8019183808324C0D8
:10086000CE018B5B9F4F20E731E0FC013183208379
:10087000CE018B5B9F4FFC01808191810197F1F745
:100880009E012B5B3F4FF90191838083CE018D5BED
:100890009F4F9E012D5B3F4FF901208131812150F7
:1008A0003109FC0131832083CE018D5B9F4FFC0118
:1008B00080819181892BA1F62BC08E010D5B1F4F8A
:1008C000CE01CF96FC0160817181828193810E946B
:1008D0007110DC01CB01F80191838083CE01895B2B
:1008E0009F4F9E012D5B3F4FF90120813181FC011B
:1008F00031832083CE01895B9F4FFC0180819181F0
:100900000197F1F79E01295B3F4FF90191838083A5
:1009100088E290E028E230E0F90120812E7FFC019E
:10092000208388E290E028E230E0F90120812D7FE9
:10093000FC01208388E290E020E3FC01208388E230
:1009400090E028E230E0F90120812460FC0120835E
:1009500080E090E0A0EAB0E48D8B9E8BAF8BB88FE7
:1009600026E636E646E655E46D897E898F89988DC0
:100970000E945311DC01CB018DAB9EABAFABB8AF86
:1009800020E030E040E85FE36DA97EA98FA998AD33
:100990000E94051088232CF481E090E09AAF89AF83
:1009A0003FC020E03FEF4FE757E46DA97EA98FA934
:1009B00098AD0E944F1118164CF520E030E040E24F
:1009C00051E46D897E898F89988D0E945311DC01D5
:1009D000CB01BC01CD010E947110DC01CB019AAFAB
:1009E00089AF0FC080E791E09CAF8BAF8BAD9CAD22
:1009F0000197F1F79CAF8BAF89AD9AAD01979AAF94
:100A000089AF89AD9AAD892B69F714C06DA97EA90C
:100A10008FA998AD0E947110DC01CB019AAF89AF0C
:100A200089AD9AAD9EAF8DAF8DAD9EAD0197F1F7BB
:100A30009EAF8DAF88E290E028E230E0F90120819E
:100A40002B7FFC01208380E090E0A0E8BFE3898F4A
:100A50009A8FAB8FBC8F26E636E646E655E4698D65
:100A60007A8D8B8D9C8D0E945311DC01CB018BA75D
:100A70009CA7ADA7BEA720E030E040E85FE36BA5F0
:100A80007CA58DA59EA50E94051088232CF481E0ED
:100A900090E098AB8FA73FC020E03FEF4FE757E4CF
:100AA0006BA57CA58DA59EA50E944F1118164CF52F
:100AB00020E030E040E251E4698D7A8D8B8D9C8D91
:100AC0000E945311DC01CB01BC01CD010E947110C9
:100AD000DC01CB0198AB8FA70FC080E791E09AAB08
:100AE00089AB89A99AA90197F1F79AAB89AB8FA530
:100AF00098A9019798AB8FA78FA598A9892B69F71B
:100B000014C06BA57CA58DA59EA50E947110DC016B
:100B1000CB0198AB8FA78FA598A99CAB8BAB8BA96A
:100B20009CA90197F1F79CAB8BAB88E290E028E29F
:100B300030E0F90120812E7FFC01208388E290E0E3
:100B400028E230E0F90120812D7FFC01208388E23A
:100B500090E020E2FC01208388E290E028E230E08F
:100B6000F90120812460FC01208380E090E0A0EA6C
:100B7000B0E48D8F9E8FAF8FB8A326E636E646E6AB
:100B800055E46D8D7E8D8F8D98A10E945311DC01EF
:100B9000CB0189A39AA3ABA3BCA320E030E040E83B
:100BA0005FE369A17AA18BA19CA10E940510882313
:100BB0002CF481E090E09EA38DA33FC020E03FEFA6
:100BC0004FE757E469A17AA18BA19CA10E944F1124
:100BD00018164CF520E030E040E251E46D8D7E8D3A
:100BE0008F8D98A10E945311DC01CB01BC01CD0176
:100BF0000E947110DC01CB019EA38DA30FC080E782
:100C000091E098A78FA38FA198A50197F1F798A7D6
:100C10008FA38DA19EA101979EA38DA38DA19EA1BF
:100C2000892B69F714C069A17AA18BA19CA10E94AC
:100C30007110DC01CB019EA38DA38DA19EA19AA76B
:100C400089A789A59AA50197F1F79AA789A788E2AC
:100C500090E028E230E0F90120812B7FFC01208325
:100C60000000C059DF4F0FB6F894DEBF0FBECDBFF6
:100C7000DF91CF911F910F910895CF93DF93CDB75F
:100C8000DEB72E970FB6F894DEBF0FBECDBF80E063
:100C900090E0A0E8BFE389839A83AB83BC8326E618
:100CA00036E646E655E469817A818B819C810E9413
:100CB0005311DC01CB018D839E83AF83B88720E085
:100CC00030E040E85FE36D817E818F8198850E94EE
:100CD000051088232CF481E090E09A8789873FC033
:100CE00020E03FEF4FE757E46D817E818F8198854B
:100CF0000E944F1118164CF520E030E040E251E41C
:100D000069817A818B819C810E945311DC01CB0126
:100D1000BC01CD010E947110DC01CB019A8789874B
:100D20000FC080E791E09C878B878B859C8501971E
:100D3000F1F79C878B8789859A8501979A878987A0
:100D400089859A85892B69F714C06D817E818F8191
:100D500098850E947110DC01CB019A87898789856B
:100D60009A859E878D878D859E850197F1F79E8751
:100D70008D8788E212D081E010D086E00ED08EE020
:100D80000CD080E80AD000002E960FB6F894DEBF93
:100D90000FBECDBFDF91CF910895CF93DF93CDB735
:100DA000DEB76E970FB6F894DEBF0FBECDBF8E8F45
:100DB0008E8D89838981807F898388E290E028E213
:100DC00030E0F90120812F70FC01208388E290E05F
:100DD00028E230E0F90130812981232BFC012083B6
:100DE00088E290E028E230E0F90120812E7FFC01CA
:100DF000208388E290E028E230E0F90120812D7F15
:100E0000FC01208388E290E028E230E0F9012081B3
:100E10002460FC01208380E090E0A0EAB0E48A83B3
:100E20009B83AC83BD8326E636E646E655E46A81BD
:100E30007B818C819D810E945311DC01CB018C8BC5
:100E40009D8BAE8BBF8B20E030E040E85FE36C8988
:100E50007D898E899F890E94051088232CF481E06A
:100E600090E0998F888F3FC020E03FEF4FE757E435
:100E70006C897D898E899F890E944F1118164CF5C7
:100E800020E030E040E251E46A817B818C819D81E9
:100E90000E945311DC01CB01BC01CD010E947110F5
:100EA000DC01CB01998F888F0FC080E791E09B8F89
:100EB0008A8F8A8D9B8D0197F1F79B8F8A8F888D02
:100EC000998D0197998F888F888D998D892B69F7D6
:100ED00014C06C897D898E899F890E947110DC0104
:100EE000CB01998F888F888D998D9D8F8C8F8C8D5C
:100EF0009D8D0197F1F79D8F8C8F88E290E028E21D
:100F000030E0F90120812B7FFC0120838E8D8F70D2
:100F10008E8F8E8D8295807F8E8F88E290E028E282
:100F200030E0F90120812F70FC01208388E290E0FD
:100F300028E230E0F90130812E8D232BFC01208343
:100F400088E290E028E230E0F90120812E7FFC0168
:100F5000208388E290E028E230E0F90120812D7FB3
:100F6000FC01208388E290E028E230E0F901208152
:100F70002460FC01208380E090E0A0EAB0E48E834E
:100F80009F83A887B98726E636E646E655E46E8154
:100F90007F81888599850E945311DC01CB018A8766
:100FA0009B87AC87BD8720E030E040E85FE36A853F
:100FB0007B858C859D850E94051088232CF481E01B
:100FC00090E09F878E873FC020E03FEF4FE757E4D8
:100FD0006A857B858C859D850E944F1118164CF57E
:100FE00020E030E040E251E46E817F818885998580
:100FF0000E945311DC01CB01BC01CD010E94711094
:10100000DC01CB019F878E870FC080E791E0998B31
:10101000888B888999890197F1F7998B888B8E85C0
:101020009F8501979F878E878E859F85892B69F77E
:1010300014C06A857B858C859D850E947110DC01BA
:10104000CB019F878E878E859F859B8B8A8B8A8914
:101050009B890197F1F79B8B8A8B88E290E028E2CD
:1010600030E0F90120812B7FFC01208300006E9687
:101070000FB6F894DEBF0FBECDBFDF91CF910895BC
:10108000CF93DF93CDB7DEB76E970FB6F894DEBF80
:101090000FBECDBF8E8F8E8D89838981807F89839E
:1010A00088E290E028E230E0F90120812F70FC0115
:1010B000208388E290E028E230E0F9013081298144
:1010C000232BFC01208388E290E028E230E0F90144
:1010D00020812160FC01208388E290E028E230E05A
:1010E000F90120812D7FFC01208388E290E028E235
:1010F00030E0F90120812460FC01208380E090E051
:10110000A0EAB0E48A839B83AC83BD8326E636E6FF
:1011100046E655E46A817B818C819D810E94531152
:10112000DC01CB018C8B9D8BAE8BBF8B20E030E044
:1011300040E85FE36C897D898E899F8966D7882323
:101140002CF481E090E0998F888F3DC020E03FEF44
:101150004FE757E46C897D898E899F890E944F11E2
:10116000181644F520E030E040E251E46A817B81CA
:101170008C819D810E945311DC01CB01BC01CD010A
:10118000B0D7DC01CB01998F888F0FC080E791E049
:101190009B8F8A8F8A8D9B8D0197F1F79B8F8A8F0A
:1011A000888D998D0197998F888F888D998D892B3E
:1011B00069F713C06C897D898E899F8992D7DC017C
:1011C000CB01998F888F888D998D9D8F8C8F8C8D79
:1011D0009D8D0197F1F79D8F8C8F88E290E028E23A
:1011E00030E0F90120812B7FFC0120838E8D8F70F0
:1011F0008E8F8E8D8295807F8E8F88E290E028E2A0
:1012000030E0F90120812F70FC01208388E290E01A
:1012100028E230E0F90130812E8D232BFC01208360
:1012200088E290E028E230E0F90120812160FC01B1
:10123000208388E290E028E230E0F90120812D7FD0
:10124000FC01208388E290E028E230E0F90120816F
:101250002460FC01208380E090E0A0EAB0E48E836B
:101260009F83A887B98726E636E646E655E46E8171
:101270007F81888599850E945311DC01CB018A8783
:101280009B87AC87BD8720E030E040E85FE36A855C
:101290007B858C859D85B9D688232CF481E090E0F0
:1012A0009F878E873BC020E03FEF4FE757E46A857A
:1012B0007B858C859D85F3D718163CF520E030E0C2
:1012C00040E251E46E817F8188859985ECD7DC010D
:1012D000CB01BC01CD0105D7DC01CB019F878E87F7
:1012E0000FC080E791E0998B888B88899989019755
:1012F000F1F7998B888B8E859F8501979F878E87C5
:101300008E859F85892B69F713C06A857B858C85BF
:101310009D85E7D6DC01CB019F878E878E859F85D3
:101320009B8B8A8B8A899B890197F1F79B8B8A8B90
:1013300088E290E028E230E0F90120812B7FFC0177
:10134000208300006E960FB6F894DEBF0FBECDBFAF
:10135000DF91CF910895CF93DF93CDB7DEB780E8CB
:101360001CDD0000DF91CF910895CF93DF931F9292
:101370001F92CDB7DEB789836A838981882F90E079
:101380008230910581F0833091051CF4019739F08A
:1013900016C08330910559F0049769F010C08A8116
:1013A0008158FBDC0CC08A818154F7DC08C08A813B
:1013B0008D56F3DC04C08A818D52EFDC0000000002
:1013C0000F900F90DF91CF910895CF93DF93CDB71A
:1013D000DEB727970FB6F894DEBF0FBECDBF8A8366
:1013E0006B835D834C833F832E8319828A8188239C
:1013F00019F08B81882311F4AEDF03C06B818A81E1
:10140000B4DF8E819F81059719F089818130F1F4D5
:101410008C819D81929582958F7089279F708927F5
:101420009C01A7E4B3E0A2D79695879596958795FA
:1014300096958795C0969093260280932502809179
:101440002502909126021CDE81E089838E819F8196
:10145000049721F08981813009F03DC08C819D8104
:101460009695879596958795969587959C01A5EC79
:10147000B0E27CD7929582958F7089279F708927DB
:1014800090932802809327024091270250912802CE
:101490009A01ADECBCEC6AD79695879596958795A1
:1014A00096958795880F991F9C01220F331F220F55
:1014B000331F820F931F9A01281B390BC901C09655
:1014C00090933302809332028091320290913302E2
:1014D000D7DD81E089838E819F81039719F089810F
:1014E0008130B9F58C819D819695879596958795E4
:1014F0009C01ABE7B4E13AD7969587959093280283
:101500008093270240912702509128029A01ADEC66
:10151000BCEC2CD79695879596958795969587954B
:10152000880F991F9C01220F331F220F331F820F38
:10153000931F9A01281B390BC901C09690932F0263
:1015400080932E0280912E0290912F0299DD81E0EE
:1015500089838E819F81029719F089818130B9F545
:101560008C819D819C01ADECBCEC00D79695879554
:101570009695879596958795909328028093270254
:1015800040912702509128029A01ADECBCECEED6B6
:10159000969587959695879596958795880F991F27
:1015A0009C01220F331F220F331F820F931F9A01BA
:1015B000281B390BC901C09690932D0280932C02F1
:1015C00080912C0290912D025BDD81E089838E81D8
:1015D0009F81019719F08981813019F54C815D81D6
:1015E0009A01ADECBCECC2D69695879596958795F9
:1015F00096958795880F991F9C01220F331F220F04
:10160000331F820F931F9A01281B390BC901C09603
:101610009093310280933002809130029091310298
:101620002FDD8E819F81069714F085E429DD00006F
:1016300027960FB6F894DEBF0FBECDBFDF91CF91D6
:101640000895CF93DF93CDB7DEB787E290E027E22E
:1016500030E0F9012081276FFC01208388E290E0CF
:1016600028E230E0F90120812078FC01208300008D
:10167000DF91CF910895CF93DF93CDB7DEB780E3AD
:1016800090E0FC01108281E390E0FC01108287E091
:1016900091E0FC01108288E091E0FC0110820000E2
:1016A000DF91CF910895CF93DF93CDB7DEB781E27D
:1016B00090E021E230E0F90120812F60FC012083DD
:1016C00082E290E022E230E0F9012081207FFC01FB
:1016D00020838AE091E02AE031E0F901208128614D
:1016E000FC0120838BE091E02BE031E0F9012081C7
:1016F0002861FC0120830000DF91CF910895CF93F2
:10170000DF93CDB7DEB78DE290E02DE230E0F90156
:1017100020812F7EFC0120838EE290E02EE230E0DB
:10172000F90120812061FC0120830000DF91CF912D
:101730000895CF93DF93CDB7DEB78DE290E02DE231
:1017400030E0F90120812F7DFC0120838EE290E0C2
:101750002EE230E0F90120812062FC0120830000AC
:10176000DF91CF910895CF93DF93CDB7DEB783DFBD
:101770009ADF67DFC4DFDDDF0000DF91CF910895DE
:10178000CF93DF93CDB7DEB7F8948AE690E02AE6F0
:1017900030E0F90120812260FC0120838DE390E09C
:1017A0002DE330E0F90120812061FC012083789451
:1017B0000000DF91CF910895CF93DF93CDB7DEB7CF
:1017C000F8948AE690E02AE630E0F901208128606A
:1017D000FC0120838DE390E02DE330E0F9012081CE
:1017E0002062FC01208378940000DF91CF9108955E
:1017F0001F920F9200905F000F9211248F939F937E
:10180000AF93BF93CF93DF93CDB7DEB780911F0225
:1018100090912002A0912102B09122020196A11D77
:10182000B11D80931F0290932002A0932102B093D8
:1018300022020000DF91CF91BF91AF919F918F91D4
:101840000F9000925F000F901F9018951F920F92BB
:1018500000905F000F9211248F939F93AF93BF93DB
:10186000CF93DF93CDB7DEB780911B0290911C021E
:10187000A0911D02B0911E020196A11DB11D809381
:101880001B0290931C02A0931D02B0931E02000045
:10189000DF91CF91BF91AF919F918F910F90009267
:1018A0005F000F901F901895CF93DF93CDB7DEB7F1
:1018B00081E291E0FC01108285E291E02FEFFC01D2
:1018C000208384E291E021E0FC01208389E291E021
:1018D000FC01108288E291E02FEFFC0120838BE273
:1018E00091E0FC0110828AE291E02FEFFC0120835D
:1018F0008DE291E0FC0110828CE291E02FEFFC017F
:10190000208380E291E029EAFC01208381E291E0DA
:101910002BE0FC0120830000DF91CF910895CF934D
:10192000DF93CDB7DEB78AE790E0FC0110828BE74A
:1019300090E0FC0110828CE790E020E2FC01208323
:1019400080E590E020E8FC0120838AE790E026E82B
:10195000FC0120830000DF91CF910895CF93DF93A6
:101960001F921F92CDB7DEB78A838A81883028F014
:101970008BE790E028E0FC0120838A8187708A83CE
:101980008CE790E02A812062FC0120838AE790E0C6
:101990002AE730E0F90120812064FC012083000067
:1019A0008AE790E0FC018081882F90E08071992780
:1019B000892BB1F389E790E0FC01808189838AE774
:1019C00090E02AE730E0F90120812061FC012083CA
:1019D0008BE790E0FC01108289810F900F90DF91DE
:1019E000CF910895CF93DF931F921F92CDB7DEB7AB
:1019F00089836A8388E291E02981FC0120838AE25D
:101A000091E02A81FC01208300000F900F90DF916C
:101A1000CF910895CF93DF931F921F92CDB7DEB77A
:101A20008A8319828A818F708A8382E290E0FC0126
:101A3000808189838981807F898399818A81892BAB
:101A4000898382E290E02981FC01208300000F90CD
:101A50000F90DF91CF910895CF93DF9300D0CDB752
:101A6000DEB789836A834B838B8178DF8093290279
:101A700080912902882F90E023E030E0AC016A8158
:101A80008981A3DC00000F900F900F90DF91CF9120
:101A90000895CF93DF93CDB7DEB786E0BBDF0000BC
:101AA000DF91CF910895CF93DF93CDB7DEB780E07C
:101AB000B1DF0000DF91CF910895CF93DF93CDB7D1
:101AC000DEB785E0A7DF0000DF91CF910895CF93C7
:101AD000DF93CDB7DEB78AE09DDF0000DF91CF91C5
:101AE0000895CF93DF93CDB7DEB72A970FB6F8945A
:101AF000DEBF0FBECDBF9A87898719821A821B82EB
:101B00001C821D821E821F82188689859A85CC01BF
:101B1000A0E0B0E0BC01CD0110D3DC01CB0128E492
:101B200031EE42E850E4BC01CD0173D2DC01CB01BF
:101B300089839A83AB83BC8369817A818B819C8101
:101B4000D0D2DC01CB01CC01A0E0B0E08D839E833C
:101B5000AF83B88710921F021092200210922102C8
:101B60001092220210921B0210921C0210921D026F
:101B700010921E0220911F023091200240912102FA
:101B80005091220271E08D819E81AF81B885281726
:101B900039074A075B0708F470E020911B02309177
:101BA0001C0240911D0250911E0261E08D819E81B8
:101BB000AF81B885281739074A075B0708F460E04A
:101BC000872F862B882309F4D5CF00006CDF000017
:101BD0002A960FB6F894DEBF0FBECDBFDF91CF912E
:101BE0000895CF93DF93CDB7DEB72A970FB6F89459
:101BF000DEBF0FBECDBF9A87898719821A821B82EA
:101C00001C821D821E821F82188689859A85CC01BE
:101C1000A0E0B0E0BC01CD0190D2DC01CB0125EE0B
:101C200030ED4AEA50E4BC01CD01F3D1DC01CB0137
:101C300089839A83AB83BC8369817A818B819C8100
:101C400050D2DC01CB018D839E83AF83B887109285
:101C50001F02109220021092210210922202209163
:101C60001F023091200240912102509122028D8169
:101C70009E81AF81B88582179307A407B50708F046
:101C8000EECF000010DF00002A960FB6F894DEBFFA
:101C90000FBECDBFDF91CF910895CF93DF931F92F9
:101CA0001F92CDB7DEB79A838983F3DE89819A814B
:101CB00098DF00000F900F90DF91CF910895CF93A0
:101CC000DF931F921F92CDB7DEB79A838983F5DE2B
:101CD00089819A8106DF00000F900F90DF91CF91EC
:101CE0000895CF93DF931F921F92CDB7DEB79A83EB
:101CF0008983EDDE89819A81F4DE00000F900F90D8
:101D0000DF91CF910895CF93DF93CDB7DEB7F894ED
:101D10002ADD05DEC9DD34DD4FDD78940000DF917A
:101D2000CF910895CF93DF93CDB7DEB7A4970FB6C9
:101D3000F894DEBF0FBECDBF86E1E0E0F2E0DE0149
:101D40001F9601900D928A95E1F7DDDF0E949400C5
:101D50000E943D069EDE66E986E944DE83E0FEDD04
:101D60008093160282E0FADD8093170281E0F6DDAF
:101D70008093180243E061E081E06EDE42E065E0BE
:101D800081E06ADE41E069E081E066DE809119026F
:101D900090911A020B9731F481E090E090931A022F
:101DA0008093190280911702893208F4E2C0809171
:101DB0001602893208F4DDC080911802893208F4D5
:101DC000D8C088E290E028E230E0F9012081286064
:101DD000FC01208380E090E0A8E4B2E489839A8348
:101DE000AB83BC8326E636E646E655E469817A8114
:101DF0008B819C8158D2DC01CB018D839E83AF8384
:101E0000B88720E030E040E85FE36D817E818F811C
:101E10009885FBD088232CF481E090E09A8789870D
:101E20003BC020E03FEF4FE757E46D817E818F811B
:101E3000988535D218163CF520E030E040E251E4B8
:101E400069817A818B819C812ED2DC01CB01BC011E
:101E5000CD0147D1DC01CB019A8789870FC080E78C
:101E600091E09C878B878B859C850197F1F79C87F8
:101E70008B8789859A8501979A87898789859A852D
:101E8000892B69F713C06D817E818F81988529D157
:101E9000DC01CB019A87898789859A859E878D8702
:101EA0008D859E850197F1F79E878D8788E290E06A
:101EB00028E230E0F9012081277FFC012083E9DD61
:101EC00068EC88EC8FDD88E291E0FC018081882F4E
:101ED00090E023E030E0AC0161E082E076DA8AE273
:101EE00091E0FC018081882F90E023E030E0AC019C
:101EF00065E082E06ADA8091190290911A029C01F1
:101F00002F5F3F4F30931A0220931902880F991FB9
:101F10009E012F5F3F4F820F931F0E96FC01808121
:101F200091818130910599F0823091051CF4892BC3
:101F300039F01FC08230910571F0039799F019C0F4
:101F40008CE390E0AADE8AE590E0B9DE12C083E27D
:101F500090E0A3DE0EC08CE390E09FDE8AE590E087
:101F6000C0DE07C08CE390E098DE8EEB90E0A7DE49
:101F70000000809117028932D0F0809116028832D9
:101F8000B0F480911802883290F483DD62E882E830
:101F900029DD23E030E042E850E061E082E015DA3C
:101FA00023E030E042E850E065E082E00EDA809124
:101FB0001602893290F06DDD62E885E513DD23E0DD
:101FC00030E045E550E061E082E0FFD923E030E019
:101FD00042E850E065E082E0F8D980911802893249
:101FE00008F4BCCE56DD65E582E8FCDC23E030E099
:101FF00042E850E061E082E0E8D923E030E045E5E6
:1020000050E065E082E0E1D9A9CED4D008F481E0C7
:1020100008950CD00AC102D140F0F9D030F021F47B
:102020005F3F19F0EBC0511134C1EEC00FD198F3EE
:102030009923C9F35523B1F3951B550BBB27AA2749
:1020400062177307840738F09F5F5F4F220F331FBB
:10205000441FAA1FA9F333D00E2E3AF0E0E830D087
:1020600091505040E695001CCAF729D0FE2F27D08A
:10207000660F771F881FBB1F261737074807AB0758
:10208000B0E809F0BB0B802DBF01FF2793585F4FCD
:102090002AF09E3F510568F0B1C0FBC05F3FECF3F2
:1020A000983EDCF3869577956795B795F7959F5F92
:1020B000C9F7880F911D9695879597F90895E1E0E6
:1020C000660F771F881FBB1F621773078407BA0745
:1020D00020F0621B730B840BBA0BEE1F88F7E095A0
:1020E0000895BCD088F09F5790F0B92F9927B75129
:1020F000A0F0D1F0660F771F881F991F1AF0BA95CC
:10210000C9F712C0B13081F0C3D0B1E00895C0C0AA
:10211000672F782F8827B85F39F0B93FCCF38695C1
:1021200077956795B395D9F73EF49095809570951E
:1021300061957F4F8F4F9F4F0895E89409C097FB9B
:102140003EF490958095709561957F4F8F4F9F4F8E
:102150009923A9F0F92F96E9BB279395F6958795D2
:1021600077956795B795F111F8CFFAF4BB0F11F495
:1021700060FF1BC06F5F7F4F8F4F9F4F16C088233C
:1021800011F096E911C0772321F09EE8872F762F72
:1021900005C0662371F096E8862F70E060E02AF0B3
:1021A0009A95660F771F881FDAF7880F969587959F
:1021B00097F90895990F0008550FAA0BE0E8FEEF74
:1021C00016161706E807F907C0F012161306E407FB
:1021D000F50798F0621B730B840B950B39F40A26F4
:1021E00061F0232B242B252B21F408950A2609F4D2
:1021F000A140A6958FEF811D811D089597F99F67D6
:1022000080E870E060E008959FEF80EC089500247E
:102210000A941616170618060906089500240A944B
:1022200012161306140605060895092E0394000CD1
:1022300011F4882352F0BB0F40F4BF2B11F460FF60
:1022400004C06F5F7F4F8F4F9F4F089557FD905889
:10225000440F551F59F05F3F71F04795880F97FB6A
:10226000991F61F09F3F79F0879508951216130624
:102270001406551FF2CF4695F1DF08C01616170653
:102280001806991FF1CF8695710561050894089588
:10229000E894BB2766277727CB0197F908958ADF53
:1022A00008F48FEF08950BD0C0CFB1DF28F0B6DF70
:1022B00018F0952309F0A2CFA7CF1124EACFC6DFEB
:1022C000A0F3959FD1F3950F50E0551F629FF00149
:1022D000729FBB27F00DB11D639FAA27F00DB11DA2
:1022E000AA1F649F6627B00DA11D661F829F22272B
:1022F000B00DA11D621F739FB00DA11D621F839FB2
:10230000A00D611D221F749F3327A00D611D231F87
:10231000849F600D211D822F762F6A2F11249F57D5
:1023200050408AF0E1F088234AF0EE0FFF1FBB1FF8
:10233000661F771F881F91505040A9F79E3F510597
:1023400070F05CCFA6CF5F3FECF3983EDCF3869550
:1023500077956795B795F795E7959F5FC1F7FE2B42
:10236000880F911D9695879597F90895A29FB001C2
:10237000B39FC001A39F700D811D1124911DB29FB9
:0E238000700D811D1124911D0895F894FFCF5A
:10238E000100020001000000010003000200010034
:06239E0000000100030035
:00000001FF
