S010000064696A6B737472612E73726563B8
S113000071C0000090C000008EC000008CC00000D1
S11300108AC000000C94360C0C94080C84C00000B8
S113002082C0000080C000007EC000007CC00000D0
S11300307AC0000078C0000076C0000074C00000E0
S113004072C0000070C000006EC000006CC00000F0
S11300506AC0000068C0000066C0000064C0000000
S113006062C0000060C000005EC000005CC0000010
S11300705AC0000058C0000056C0000054C0000020
S113008052C0000050C000004EC000004CC0000030
S11300904AC0000048C0000046C0000044C0000040
S11300A042C0000040C000003EC000003CC0000050
S11300B03AC0000038C0000036C0000034C0000060
S11300C032C0000030C000002EC000002CC0000070
S11300D02AC0000028C0000026C0000024C0000080
S11300E022C0000011241FBECFEFD1E2DEBFCDBF7E
S11300F000E00CBF12E0A0E0B2E0EAEDF2E300E0C1
S11301000BBF02C007900D92AC30B107D9F723E0C2
S1130110ACE0B2E001C01D92A030B207E1F70E944A
S1130120E2130C946B196CCF0F931F93CF93DF934F
S1130130CDB7DEB7C057D1090FB6F894DEBF0FBEF6
S1130140CDBF80E090E0A0E8BFE389839A83AB83CE
S1130150BC838E0109591F4F26E636E646E655E470
S113016069817A818B819C810E94F918DC01CB0121
S1130170F80180839183A283B383CE0189599F4F71
S113018020E030E040E85FE3FC016081718182811E
S113019093810E94AB1788234CF4CE0185599F4F5D
S11301A021E030E0FC013183208369C0CE0189590C
S11301B09F4F20E03FEF4FE757E4FC0160817181DE
S11301C0828193810E94F51818160CF046C020E035
S11301D030E040E251E469817A818B819C810E9404
S11301E0F918DC01CB018E0105591F4FBC01CD016B
S11301F00E941718DC01CB01F8019183808324C08D
S1130200CE0183599F4F20E731E0FC0131832083E5
S1130210CE0183599F4FFC01808191810197F1F7B1
S11302209E0123593F4FF90191838083CE01855963
S11302309F4F9E0125593F4FF90120813181215063
S11302403109FC0131832083CE0185599F4FFC0184
S113025080819181892BA1F62CC08E0105591F4FF5
S1130260CE0189599F4FFC01608171818281938104
S11302700E941718DC01CB01F80191838083CE0121
S113028081599F4F9E0125593F4FF90120813181AA
S1130290FC0131832083CE0181599F4FFC01808171
S11302A091810197F1F79E0121593F4FF901918303
S11302B0808388E290E028E230E0F90120812E7FFB
S11302C0FC01208388E290E028E230E0F9012081FB
S11302D02D7FFC01208388E290E020E3FC01208351
S11302E088E290E028E230E0F90120812460FC01FA
S11302F0208380E090E0A0EAB0E48D839E83AF8306
S1130300B8878E01035A1F4F26E636E646E655E4C3
S11303106D817E818F8198850E94F918DC01CB0163
S1130320F80180839183A283B383CE01835A9F4FC4
S113033020E030E040E85FE3FC016081718182816C
S113034093810E94AB1788234CF4CE018F599F4FA1
S113035021E030E0FC013183208369C0CE01835A5F
S11303609F4F20E03FEF4FE757E4FC01608171812C
S1130370828193810E94F51818160CF046C020E083
S113038030E040E251E46D817E818F8198850E9446
S1130390F918DC01CB018E010F591F4FBC01CD01AF
S11303A00E941718DC01CB01F8019183808324C0DB
S11303B0CE018D599F4F20E731E0FC01318320832A
S11303C0CE018D599F4FFC01808191810197F1F7F6
S11303D09E012D593F4FF90191838083CE018F599E
S11303E09F4F9E012F593F4FF901208131812150A8
S11303F03109FC0131832083CE018F599F4FFC01C9
S113040080819181892BA1F62CC08E010F591F4F39
S1130410CE01835A9F4FFC01608171818281938157
S11304200E941718DC01CB01F80191838083CE016F
S11304308B599F4F9E012F593F4FF90120813181E4
S1130440FC0131832083CE018B599F4FFC018081B5
S113045091810197F1F79E012B593F4FF901918347
S1130460808388E290E028E230E0F90120812B7F4C
S1130470FC01208380E090E0A0E8BFE389879A87AD
S1130480AB87BC878E010D5A1F4F26E636E646E63B
S113049055E469857A858B859C850E94F918DC0171
S11304A0CB01F80180839183A283B383CE018D5A5B
S11304B09F4F20E030E040E85FE3FC016081718100
S11304C0828193810E94AB1788234CF4CE01895A10
S11304D09F4F21E030E0FC013183208369C0CE01CD
S11304E08D5A9F4F20E03FEF4FE757E4FC016081B6
S11304F07181828193810E94F51818160CF046C010
S113050020E030E040E251E469857A858B859C8562
S11305100E94F918DC01CB018E01095A1F4FBC015E
S1130520CD010E941718DC01CB01F801918380836F
S113053024C0CE01875A9F4F20E731E0FC0131836C
S11305402083CE01875A9F4FFC01808191810197BE
S1130550F1F79E01275A3F4FF90191838083CE0121
S1130560895A9F4F9E01295A3F4FF90120813181B9
S113057021503109FC0131832083CE01895A9F4FD8
S1130580FC0180819181892BA1F62CC08E01095A2E
S11305901F4FCE018D5A9F4FFC0160817181828172
S11305A093810E941718DC01CB01F80191838083A9
S11305B0CE01855A9F4F9E01295A3F4FF901208150
S11305C03181FC0131832083CE01855A9F4FFC0188
S11305D0808191810197F1F79E01255A3F4FF901DE
S11305E09183808388E290E028E230E0F901208161
S11305F02E7FFC01208388E290E028E230E0F901BC
S113060020812D7FFC01208388E290E020E3FC011F
S1130610208388E290E028E230E0F9012081246020
S1130620FC01208380E090E0A0EAB0E48D879E87FF
S1130630AF87B88B8E01075B1F4F26E636E646E68A
S113064055E46D857E858F8598890E94F918DC01B3
S1130650CB01F80180839183A283B383CE01875BAE
S11306609F4F20E030E040E85FE3FC01608171814E
S1130670828193810E94AB1788234CF4CE01835B63
S11306809F4F21E030E0FC013183208369C0CE011B
S1130690875B9F4F20E03FEF4FE757E4FC01608109
S11306A07181828193810E94F51818160CF046C05E
S11306B020E030E040E251E46D857E858F859889A5
S11306C00E94F918DC01CB018E01035B1F4FBC01B2
S11306D0CD010E941718DC01CB01F80191838083BE
S11306E024C0CE01815B9F4F20E731E0FC013183C0
S11306F02083CE01815B9F4FFC0180819181019712
S1130700F1F79E01215B3F4FF90191838083CE0174
S1130710835B9F4F9E01235B3F4FF9012081318111
S113072021503109FC0131832083CE01835B9F4F2B
S1130730FC0180819181892BA1F62CC08E01035B81
S11307401F4FCE01875B9F4FFC01608171818281C5
S113075093810E941718DC01CB01F80191838083F7
S1130760CE018F5A9F4F9E01235B3F4FF901208199
S11307703181FC0131832083CE018F5A9F4FFC01CC
S1130780808191810197F1F79E012F5A3F4FF90122
S11307909183808388E290E028E230E0F9012081AF
S11307A02B7FFC01208380E090E0A0E8BFE3898BED
S11307B09A8BAB8BBC8B8E01015C1F4F26E636E611
S11307C046E655E469897A898B899C890E94F918DF
S11307D0DC01CB01F80180839183A283B383CE0132
S11307E0CF9620E030E040E85FE3FC016081718156
S11307F0828193810E94AB1788234CF4CE018D5BD8
S11308009F4F21E030E0FC013183208367C0CE019B
S1130810CF9620E03FEF4FE757E4FC016081718100
S1130820828193810E94F51818160CF046C020E0CE
S113083030E040E251E469897A898B899C890E947D
S1130840F918DC01CB018E010D5B1F4FBC01CD01FA
S11308500E941718DC01CB01F8019183808324C026
S1130860CE018B5B9F4F20E731E0FC013183208375
S1130870CE018B5B9F4FFC01808191810197F1F741
S11308809E012B5B3F4FF90191838083CE018D5BE9
S11308909F4F9E012D5B3F4FF901208131812150F3
S11308A03109FC0131832083CE018D5B9F4FFC0114
S11308B080819181892BA1F62BC08E010D5B1F4F86
S11308C0CE01CF96FC0160817181828193810E9467
S11308D01718DC01CB01F80191838083CE01895B79
S11308E09F4F9E012D5B3F4FF90120813181FC0117
S11308F031832083CE01895B9F4FFC0180819181EC
S11309000197F1F79E01295B3F4FF90191838083A1
S113091088E290E028E230E0F90120812E7FFC019A
S1130920208388E290E028E230E0F90120812D7FE5
S1130930FC01208388E290E020E3FC01208388E22C
S113094090E028E230E0F90120812460FC0120835A
S113095080E090E0A0EAB0E48D8B9E8BAF8BB88FE3
S113096026E636E646E655E46D897E898F89988DBC
S11309700E94F918DC01CB018DAB9EABAFABB8AFD5
S113098020E030E040E85FE36DA97EA98FA998AD2F
S11309900E94AB1788232CF481E090E09AAF89AFD2
S11309A03FC020E03FEF4FE757E46DA97EA98FA930
S11309B098AD0E94F51818164CF520E030E040E29E
S11309C051E46D897E898F89988D0E94F918DC0124
S11309D0CB01BC01CD010E941718DC01CB019AAFF9
S11309E089AF0FC080E791E09CAF8BAF8BAD9CAD1E
S11309F00197F1F79CAF8BAF89AD9AAD01979AAF90
S1130A0089AF89AD9AAD892B69F714C06DA97EA908
S1130A108FA998AD0E941718DC01CB019AAF89AF5A
S1130A2089AD9AAD9EAF8DAF8DAD9EAD0197F1F7B7
S1130A309EAF8DAF88E290E028E230E0F90120819A
S1130A402B7FFC01208380E090E0A0E8BFE3898F46
S1130A509A8FAB8FBC8F26E636E646E655E4698D61
S1130A607A8D8B8D9C8D0E94F918DC01CB018BA7AC
S1130A709CA7ADA7BEA720E030E040E85FE36BA5EC
S1130A807CA58DA59EA50E94AB1788232CF481E03C
S1130A9090E098AB8FA73FC020E03FEF4FE757E4CB
S1130AA06BA57CA58DA59EA50E94F51818164CF57E
S1130AB020E030E040E251E4698D7A8D8B8D9C8D8D
S1130AC00E94F918DC01CB01BC01CD010E9417186A
S1130AD0DC01CB0198AB8FA70FC080E791E09AAB04
S1130AE089AB89A99AA90197F1F79AAB89AB8FA52C
S1130AF098A9019798AB8FA78FA598A9892B69F717
S1130B0014C06BA57CA58DA59EA50E941718DC01B9
S1130B10CB0198AB8FA78FA598A99CAB8BAB8BA966
S1130B209CA90197F1F79CAB8BAB88E290E028E29B
S1130B3030E0F90120812E7FFC01208388E290E0DF
S1130B4028E230E0F90120812D7FFC01208388E236
S1130B5090E020E2FC01208388E290E028E230E08B
S1130B60F90120812460FC01208380E090E0A0EA68
S1130B70B0E48D8F9E8FAF8FB8A326E636E646E6A7
S1130B8055E46D8D7E8D8F8D98A10E94F918DC013E
S1130B90CB0189A39AA3ABA3BCA320E030E040E837
S1130BA05FE369A17AA18BA19CA10E94AB17882362
S1130BB02CF481E090E09EA38DA33FC020E03FEFA2
S1130BC04FE757E469A17AA18BA19CA10E94F51873
S1130BD018164CF520E030E040E251E46D8D7E8D36
S1130BE08F8D98A10E94F918DC01CB01BC01CD01C5
S1130BF00E941718DC01CB019EA38DA30FC080E7D0
S1130C0091E098A78FA38FA198A50197F1F798A7D2
S1130C108FA38DA19EA101979EA38DA38DA19EA1BB
S1130C20892B69F714C069A17AA18BA19CA10E94A8
S1130C301718DC01CB019EA38DA38DA19EA19AA7B9
S1130C4089A789A59AA50197F1F79AA789A788E2A8
S1130C5090E028E230E0F90120812B7FFC01208321
S1130C600000C059DF4F0FB6F894DEBF0FBECDBFF2
S1130C70DF91CF911F910F910895CF93DF93CDB75B
S1130C80DEB72E970FB6F894DEBF0FBECDBF80E05F
S1130C9090E0A0E8BFE389839A83AB83BC8326E614
S1130CA036E646E655E469817A818B819C810E940F
S1130CB0F918DC01CB018D839E83AF83B88720E0D4
S1130CC030E040E85FE36D817E818F8198850E94EA
S1130CD0AB1788232CF481E090E09A8789873FC082
S1130CE020E03FEF4FE757E46D817E818F81988547
S1130CF00E94F51818164CF520E030E040E251E46B
S1130D0069817A818B819C810E94F918DC01CB0175
S1130D10BC01CD010E941718DC01CB019A87898799
S1130D200FC080E791E09C878B878B859C8501971A
S1130D30F1F79C878B8789859A8501979A8789879C
S1130D4089859A85892B69F714C06D817E818F818D
S1130D5098850E941718DC01CB019A8789878985B9
S1130D609A859E878D878D859E850197F1F79E874D
S1130D708D8788E212D081E010D086E00ED08EE01C
S1130D800CD080E80AD000002E960FB6F894DEBF8F
S1130D900FBECDBFDF91CF910895CF93DF93CDB731
S1130DA0DEB76E970FB6F894DEBF0FBECDBF8E8F41
S1130DB08E8D89838981807F898388E290E028E20F
S1130DC030E0F90120812F70FC01208388E290E05B
S1130DD028E230E0F90130812981232BFC012083B2
S1130DE088E290E028E230E0F90120812E7FFC01C6
S1130DF0208388E290E028E230E0F90120812D7F11
S1130E00FC01208388E290E028E230E0F9012081AF
S1130E102460FC01208380E090E0A0EAB0E48A83AF
S1130E209B83AC83BD8326E636E646E655E46A81B9
S1130E307B818C819D810E94F918DC01CB018C8B14
S1130E409D8BAE8BBF8B20E030E040E85FE36C8984
S1130E507D898E899F890E94AB1788232CF481E0B9
S1130E6090E0998F888F3FC020E03FEF4FE757E431
S1130E706C897D898E899F890E94F51818164CF516
S1130E8020E030E040E251E46A817B818C819D81E5
S1130E900E94F918DC01CB01BC01CD010E94171896
S1130EA0DC01CB01998F888F0FC080E791E09B8F85
S1130EB08A8F8A8D9B8D0197F1F79B8F8A8F888DFE
S1130EC0998D0197998F888F888D998D892B69F7D2
S1130ED014C06C897D898E899F890E941718DC0152
S1130EE0CB01998F888F888D998D9D8F8C8F8C8D58
S1130EF09D8D0197F1F79D8F8C8F88E290E028E219
S1130F0030E0F90120812B7FFC0120838E8D8F70CE
S1130F108E8F8E8D8295807F8E8F88E290E028E27E
S1130F2030E0F90120812F70FC01208388E290E0F9
S1130F3028E230E0F90130812E8D232BFC0120833F
S1130F4088E290E028E230E0F90120812E7FFC0164
S1130F50208388E290E028E230E0F90120812D7FAF
S1130F60FC01208388E290E028E230E0F90120814E
S1130F702460FC01208380E090E0A0EAB0E48E834A
S1130F809F83A887B98726E636E646E655E46E8150
S1130F907F81888599850E94F918DC01CB018A87B5
S1130FA09B87AC87BD8720E030E040E85FE36A853B
S1130FB07B858C859D850E94AB1788232CF481E06A
S1130FC090E09F878E873FC020E03FEF4FE757E4D4
S1130FD06A857B858C859D850E94F51818164CF5CD
S1130FE020E030E040E251E46E817F81888599857C
S1130FF00E94F918DC01CB01BC01CD010E94171835
S1131000DC01CB019F878E870FC080E791E0998B2D
S1131010888B888999890197F1F7998B888B8E85BC
S11310209F8501979F878E878E859F85892B69F77A
S113103014C06A857B858C859D850E941718DC0108
S1131040CB019F878E878E859F859B8B8A8B8A8910
S11310509B890197F1F79B8B8A8B88E290E028E2C9
S113106030E0F90120812B7FFC01208300006E9683
S11310700FB6F894DEBF0FBECDBFDF91CF910895B8
S1131080CF93DF93CDB7DEB76E970FB6F894DEBF7C
S11310900FBECDBF8E8F8E8D89838981807F89839A
S11310A088E290E028E230E0F90120812F70FC0111
S11310B0208388E290E028E230E0F9013081298140
S11310C0232BFC01208388E290E028E230E0F90140
S11310D020812160FC01208388E290E028E230E056
S11310E0F90120812D7FFC01208388E290E028E231
S11310F030E0F90120812460FC01208380E090E04D
S1131100A0EAB0E48A839B83AC83BD8326E636E6FB
S113111046E655E46A817B818C819D810E94F918A1
S1131120DC01CB018C8B9D8BAE8BBF8B20E030E040
S113113040E85FE36C897D898E899F890E94AB17A3
S113114088232CF481E090E0998F888F3FC020E0C1
S11311503FEF4FE757E46C897D898E899F890E9410
S1131160F51818164CF520E030E040E251E46A81AD
S11311707B818C819D810E94F918DC01CB01BC012B
S1131180CD010E941718DC01CB01998F888F0FC005
S113119080E791E09B8F8A8F8A8D9B8D0197F1F771
S11311A09B8F8A8F888D998D0197998F888F888DD1
S11311B0998D892B69F714C06C897D898E899F89E3
S11311C00E941718DC01CB01998F888F888D998D27
S11311D09D8F8C8F8C8D9D8D0197F1F79D8F8C8FBA
S11311E088E290E028E230E0F90120812B7FFC01C5
S11311F020838E8D8F708E8F8E8D8295807F8E8FC3
S113120088E290E028E230E0F90120812F70FC01AF
S1131210208388E290E028E230E0F90130812E8DCD
S1131220232BFC01208388E290E028E230E0F901DE
S113123020812160FC01208388E290E028E230E0F4
S1131240F90120812D7FFC01208388E290E028E2CF
S113125030E0F90120812460FC01208380E090E0EB
S1131260A0EAB0E48E839F83A887B98726E636E692
S113127046E655E46E817F81888599850E94F91838
S1131280DC01CB018A879B87AC87BD8720E030E0F7
S113129040E85FE36A857B858C859D850E94AB175A
S11312A088232CF481E090E09F878E873FC020E064
S11312B03FEF4FE757E46A857B858C859D850E94C7
S11312C0F51818164CF520E030E040E251E46E8148
S11312D07F81888599850E94F918DC01CB01BC01C6
S11312E0CD010E941718DC01CB019F878E870FC0A8
S11312F080E791E0998B888B888999890197F1F728
S1131300998B888B8E859F8501979F878E878E8585
S11313109F85892B69F714C06A857B858C859D859B
S11313200E941718DC01CB019F878E878E859F85CD
S11313309B8B8A8B8A899B890197F1F79B8B8A8B7C
S113134088E290E028E230E0F90120812B7FFC0163
S1131350208300006E960FB6F894DEBF0FBECDBF9B
S1131360DF91CF910895CF93DF93CDB7DEB780E8B7
S113137014DD0000DF91CF910895CF93DF931F9286
S11313801F92CDB7DEB789836A838981882F90E065
S11313908230910581F0833091051CF4019739F076
S11313A016C08330910559F0049769F010C08A8102
S11313B08158F3DC0CC08A818154EFDC08C08A8137
S11313C08D56EBDC04C08A818D52E7DC00000000FE
S11313D00F900F90DF91CF910895CF93DF93CDB706
S11313E0DEB727970FB6F894DEBF0FBECDBF8A8352
S11313F06B835D834C833F832E8319828A81882388
S113140019F08B81882311F4AEDF03C06B818A81CC
S1131410B4DF8E819F81059719F089818130F9F4B9
S11314208C819D81929582958F7089279F708927E1
S11314309C01A7E4B3E00E945C1996958795969564
S1131440879596958795C09690931A028093190272
S11314508091190290911A0213DE81E089838E81B2
S11314609F81049721F08981813009F03FC08C81EC
S11314709D819695879596958795969587959C01D8
S1131480A5ECB0E20E945C19929582958F70892731
S11314909F70892790931C0280931B0240911B022A
S11314A050911C029A01ADECBCEC0E945C1996951B
S11314B087959695879596958795880F991F9C0192
S11314C0220F331F220F331F820F931F9A01281BF1
S11314D0390BC901C0969093FF028093FE0280915C
S11314E0FE029091FF02CCDD81E089838E819F8191
S11314F0039719F089818130C9F58C819D81969576
S11315008795969587959C01ABE7B4E10E945C1999
S11315109695879590931C0280931B0240911B0221
S113152050911C029A01ADECBCEC0E945C1996959A
S113153087959695879596958795880F991F9C0111
S1131540220F331F220F331F820F931F9A01281B70
S1131550390BC901C0969093590280935802809127
S11315605802909159028CDD81E089838E819F819C
S1131570029719F089818130C9F58C819D819C0184
S1131580ADECBCEC0E945C19969587959695879571
S11315909695879590931C0280931B0240911B02A1
S11315A050911C029A01ADECBCEC0E945C1996951A
S11315B087959695879596958795880F991F9C0191
S11315C0220F331F220F331F820F931F9A01281BF0
S11315D0390BC901C09690935702809356028091AB
S11315E05602909157024CDD81E089838E819F8160
S11315F0019719F08981813021F54C815D819A012F
S1131600ADECBCEC0E945C199695879596958795F0
S113161096958795880F991F9C01220F331F220FDF
S1131620331F820F931F9A01281B390BC901C096DF
S11316309093FD028093FC028091FC029091FD0244
S11316401FDD8E819F81069714F085E419DD00006B
S113165027960FB6F894DEBF0FBECDBFDF91CF91B2
S11316600895CF93DF93CDB7DEB787E290E027E20A
S113167030E0F9012081276FFC01208388E290E0AB
S113168028E230E0F90120812074FC01208300006D
S1131690DF91CF910895CF93DF93CDB7DEB780E389
S11316A090E0FC01108281E390E0FC01108287E06D
S11316B091E0FC01108288E091E0FC0110820000BE
S11316C0DF91CF910895CF93DF93CDB7DEB781E259
S11316D090E021E230E0F90120812F60FC012083B9
S11316E082E290E022E230E0F9012081207FFC01D7
S11316F020838AE091E02AE031E0F9012081286129
S1131700FC0120838BE091E02BE031E0F9012081A2
S11317102861FC0120830000DF91CF910895CF93CD
S1131720DF93CDB7DEB78DE290E02DE230E0F90132
S113173020812F7EFC0120838EE290E02EE230E0B7
S1131740F90120812061FC0120830000DF91CF9109
S11317500895CF93DF93CDB7DEB78DE290E02DE20D
S113176030E0F90120812F7DFC0120838EE290E09E
S11317702EE230E0F90120812062FC012083000088
S1131780DF91CF910895CF93DF93CDB7DEB783DF99
S11317909ADF67DFC4DFDDDF0000DF91CF910895BA
S11317A0CF93DF93CDB7DEB7F8948AE690E02AE6CC
S11317B030E0F90120812260FC0120838DE390E078
S11317C02DE330E0F90120812061FC01208378942D
S11317D00000DF91CF910895CF93DF93CDB7DEB7AB
S11317E0F8948AE690E02AE630E0F9012081286046
S11317F0FC0120838DE390E02DE330E0F9012081AA
S11318002062FC01208378940000DF91CF91089539
S11318101F920F9200905F000F9211248F939F9359
S1131820AF93BF93CF93DF93CDB7DEB7809113020D
S113183090911402A0911502B09116020196A11D77
S1131840B11D8093130290931402A0931502B093D8
S113185016020000DF91CF91BF91AF919F918F91BC
S11318600F9000925F000F901F9018951F920F9297
S113187000905F000F9211248F939F93AF93BF93B7
S1131880CF93DF93CDB7DEB780910F029091100212
S1131890A0911102B09112020196A11DB11D809375
S11318A00F0290931002A0931102B0931202000051
S11318B0DF91CF91BF91AF919F918F910F90009243
S11318C05F000F901F901895CF93DF93CDB7DEB7CD
S11318D081E291E0FC01108285E291E02FEFFC01AE
S11318E0208384E291E021E0FC01208389E291E0FD
S11318F0FC01108288E291E02FEFFC0120838BE24F
S113190091E0FC0110828AE291E02FEFFC01208338
S11319108DE291E0FC0110828CE291E02FEFFC015A
S1131920208380E291E029EAFC01208381E291E0B6
S11319302BE0FC0120830000DF91CF910895CF9329
S1131940DF93CDB7DEB78AE790E0FC0110828BE726
S113195090E0FC0110828CE790E020E2FC012083FF
S113196080E590E020E4FC0120838AE790E026E80B
S1131970FC0120830000DF91CF910895CF93DF9382
S11319801F921F92CDB7DEB78A838A81883028F0F0
S11319908BE790E028E0FC0120838A8187708A83AA
S11319A08CE790E02A812062FC0120838AE790E0A2
S11319B02AE730E0F90120812064FC012083000043
S11319C08AE790E0FC018081882F90E0807199275C
S11319D0892BB1F389E790E0FC01808189838AE750
S11319E090E02AE730E0F90120812061FC012083A6
S11319F08BE790E0FC01108289810F900F90DF91BA
S1131A00CF910895CF93DF931F921F92CDB7DEB786
S1131A1089836A8388E291E02981FC0120838AE238
S1131A2091E02A81FC01208300000F900F90DF9148
S1131A30CF910895CF93DF931F921F92CDB7DEB756
S1131A408A8319828A818F708A8382E290E0FC0102
S1131A50808189838981807F898399818A81892B87
S1131A60898382E290E02981FC01208300000F90A9
S1131A700F90DF91CF910895CF93DF9300D0CDB72E
S1131A80DEB789836A834B838B8178DF809353022B
S1131A9080915302882F90E023E030E0AC016A810A
S1131AA089819BDC00000F900F900F90DF91CF9104
S1131AB00895CF93DF93CDB7DEB786E0BBDF000098
S1131AC0DF91CF910895CF93DF93CDB7DEB780E058
S1131AD0B1DF0000DF91CF910895CF93DF93CDB7AD
S1131AE0DEB785E0A7DF0000DF91CF910895CF93A3
S1131AF0DF93CDB7DEB78AE09DDF0000DF91CF91A1
S1131B000895CF93DF93CDB7DEB72A970FB6F89435
S1131B10DEBF0FBECDBF9A87898719821A821B82C6
S1131B201C821D821E821F82188689859A85CC019B
S1131B30A0E0B0E0BC01CD010E944318DC01CB0160
S1131B4028E431EE42E850E4BC01CD010E94AF1715
S1131B50DC01CB0189839A83AB83BC8369817A815D
S1131B608B819C810E941718DC01CB01CC01A0E081
S1131B70B0E08D839E83AF83B887109213021092D6
S1131B801402109215021092160210920F02109273
S1131B901002109211021092120283E0EFDE8E31D5
S1131BA0E0F782E0EBDE8F31C0F381E0E7DE8E31D7
S1131BB0A0F760E080E026DF000085DF00002A96C1
S1131BC00FB6F894DEBF0FBECDBFDF91CF9108955D
S1131BD0CF93DF93CDB7DEB72A970FB6F894DEBF65
S1131BE00FBECDBF9A87898719821A821B821C82F5
S1131BF01D821E821F82188689859A85CC01A0E0E9
S1131C00B0E0BC01CD010E944318DC01CB0125EEFC
S1131C1030ED4AEA50E4BC01CD010E94AF17DC016B
S1131C20CB0189839A83AB83BC8369817A818B815D
S1131C309C810E941718DC01CB018D839E83AF83A6
S1131C40B887109213021092140210921502109287
S1131C501602209113023091140240911502509102
S1131C6016028D819E81AF81B88582179307A407E0
S1131C70B50708F0EECF000026DF00002A960FB665
S1131C80F894DEBF0FBECDBFDF91CF910895CF93FF
S1131C90DF931F921F92CDB7DEB79A83898309DF42
S1131CA089819A8195DF00000F900F90DF91CF9189
S1131CB00895CF93DF931F921F92CDB7DEB79A8317
S1131CC089830BDF89819A811CDF00000F900F90BC
S1131CD0DF91CF910895CF93DF931F921F92CDB7D9
S1131CE0DEB79A83898303DF89819A810ADF000042
S1131CF00F900F90DF91CF910895CF93DF93CDB7DD
S1131D00DEB7F89440DD1BDEDFDD4ADD65DD789467
S1131D100000DF91CF910895CF93DF93CDB7DEB765
S1131D2061970FB6F894DEBF0FBECDBF8CE0E0E044
S1131D30F2E0DE01169601900D928A95E1F78FEF9D
S1131D408B8319824DC08981882F90E09E012A5F80
S1131D503F4F820F931FFC018081882F90E09C01EC
S1131D602650310980E090E0821B930B880F991F65
S1131D7099230CF40196959587959D838C831A82FB
S1131D801FC08B818F5F8B838B81882F90E02C8188
S1131D90880F991F865A9D4FFC0120838B81882FC1
S1131DA090E0880F991F855A9D4F2981FC0120835B
S1131DB08C819D8102969D838C838A818F5F8A8327
S1131DC08981882F90E09E012A5F3F4F820F931FE5
S1131DD0FC0190818A818917A0F289818F5F8983B0
S1131DE089818C3008F4AFCF000061960FB6F89467
S1131DF0DEBF0FBECDBFDF91CF910895CF93DF93A8
S1131E00CDB7DEB7C650D7410FB6F894DEBF0FBECC
S1131E10CDBF9E012B5F384ED9018D939C9324E650
S1131E203BE0CE010796FC01A901119241505040BC
S1131E30E1F781E08A8781E08B87CE018F5B9F4F3A
S1131E4021E0DC012C93CE018E5B9F4F21E0FC014D
S1131E502083CE0188589F4F21E0DC012C93CE01D2
S1131E6087589F4F21E0FC012083CE0187559F4F67
S1131E7021E0DC012C93CE0180559F4F21E0FC0131
S1131E802083CE0181529F4F21E0DC012C93CE01AF
S1131E9080529F4F21E0FC012083CE0189519F4F46
S1131EA021E0DC012C93CE018A5E9E4F21E0FC01EF
S1131EB02083CE01895E9E4F21E0DC012C93CE016C
S1131EC0825E9E4F21E0FC012083CE01835B9E4F06
S1131ED021E0DC012C93CE018B5A9E4F21E0FC01C2
S1131EE02083CE018C579E4F21E0DC012C93CE0140
S1131EF084579E4F21E0FC012083CE0183579E4FDF
S1131F0021E0DC012C93CE0185549E4F21E0FC019D
S1131F102083CE018D539E4F21E0DC012C93CE0112
S1131F208C539E4F21E0FC012083CE018E509E4FA6
S1131F3021E0DC012C93CE0186509E4F21E0FC0170
S1131F402083CE0185509E4F21E0DC012C93CE01ED
S1131F50875D9D4F21E0FC012083CE018F5C9D4F66
S1131F6021E0DC012C93CE018E5C9D4F21E0FC012D
S1131F702083CE01805A9D4F21E0DC012C93CE01B9
S1131F8087599D4F21E0FC012083CE018A569D4F45
S1131F9021E0DC012C93CE0189569D4F21E0FC0108
S1131FA02083CE0180569D4F21E0DC012C93CE018D
S1131FB083539D4F21E0FC012083CE0182539D4F2A
S1131FC021E0DC012C93CE0189529D4F21E0FC01DC
S1131FD02083CE018C5F9C4F21E0DC012C93CE0149
S1131FE08B5F9C4F21E0FC012083CE01825F9C4FDC
S1131FF021E0DC012C93CE01855C9C4F21E0FC01A7
S11320002083CE018B5B9C4F21E0DC012C93CE011D
S11320108E589C4F21E0FC012083CE0184589C4FB4
S113202021E0DC012C93CE0183589C4F21E0FC017C
S11320302083CE0187559C4F21E0DC012C93CE01F7
S11320408D549C4F21E0FC012083CE018C549C4F85
S113205021E0DC012C93CE0180529C4F21E0FC0155
S11320602083CE0186519C4F21E0DC012C93CE01CC
S113207085519C4F21E0FC012083CE01895E9B4F5A
S113208021E0DC012C93CE018F5D9B4F21E0FC010C
S11320902083CE018E5D9B4F21E0DC012C93CE0189
S11320A0825B9B4F21E0FC012083CE01885A9B4F29
S11320B021E0DC012C93CE01875A9B4F21E0FC01E7
S11320C02083CE018B579B4F21E0DC012C93CE0162
S11320D080579B4F21E0FC012083CE0185549B4F08
S11320E021E0DC012C93CE0184549B4F21E0FC01C0
S11320F02083CE0189539B4F21E0DC012C93CE0138
S11321008E509B4F21E0FC012083CE018D509B4FCC
S113211021E0DC012C93CE0182509B4F21E0FC0195
S11321202083CE01875D9A4F21E0DC012C93CE0100
S1132130865D9A4F21E0FC012083CE018B5C9A4F8F
S113214021E0DC012C93CE01805A9A4F21E0FC015E
S11321502083CE018F599A4F21E0DC012C93CE01CC
S113216084599A4F21E0FC012083CE0189569A4F6D
S113217021E0DC012C93CE018D559A4F21E0FC0126
S11321802083CE0182539A4F21E0DC012C93CE01AF
S113219086529A4F21E0FC012083CE018B5F994F38
S11321A021E0DC012C93CE01805F994F21E0FC01FA
S11321B02083CE018F5E994F21E0DC012C93CE0168
S11321C0845C994F21E0FC012083CE01895B994F07
S11321D021E0DC012C93CE01885B994F21E0FC01C6
S11321E02083CE018D58994F21E0DC012C93CE0140
S11321F08258994F21E0FC012083CE018158994FE8
S113220021E0DC012C93CE018655994F21E0FC019D
S11322102083CE018B54994F21E0DC012C93CE0115
S11322208A54994F21E0FC012083CE018F51994FAC
S113223021E0DC012C93CE018451994F21E0FC0173
S11322402083CE01885E984F21E0DC012C93CE01DF
S1132250875E984F21E0FC012083CE018D5D984F6D
S113226021E0DC012C93CE01815B984F21E0FC013D
S11322702083CE01805B984F21E0DC012C93CE01BA
S1132280865A984F21E0FC012083CE018A57984F4B
S113229021E0DC012C93CE018957984F21E0FC0109
S11322A02083CE018F56984F21E0DC012C93CE0180
S11322B08354984F21E0FC012083CE018254984F2F
S11322C021E0DC012C93CE018853984F21E0FC01DE
S11322D02083CE018C50984F21E0DC012C93CE0159
S11322E08B50984F21E0FC012083CE018150984F00
S11322F021E0DC012C93CE01845D974F21E0FC01A9
S11323002083CE018A5C974F21E0DC012C93CE011F
S11323108D59974F21E0FC012083CE018459974FBA
S113232021E0DC012C93CE018359974F21E0FC017D
S11323302083CE018656974F21E0DC012C93CE01F9
S11323408D55974F21E0FC012083CE018C55974F8A
S113235021E0DC012C93CE018F52974F21E0FC0148
S11323602083CE018652974F21E0DC012C93CE01CD
S11323708552974F21E0FC012083CE01885F964F60
S113238021E0DC012C93CE018F5E964F21E0FC010D
S11323902083CE01815C964F21E0DC012C93CE0199
S11323A0805C964F21E0FC012083CE01885B964F30
S11323B021E0DC012C93CE018A58964F21E0FC01E8
S11323C02083CE018958964F21E0DC012C93CE0165
S11323D08158964F21E0FC012083CE018355964F0E
S11323E021E0DC012C93CE018255964F21E0FC01C3
S11323F02083CE018A54964F21E0DC012C93CE0138
S11324008C51964F21E0FC012083CE018B51964FD5
S113241021E0DC012C93CE018351964F21E0FC0195
S11324202083CE01845E954F21E0DC012C93CE0104
S11324308C5D954F21E0FC012083CE018D5A954F90
S113244021E0DC012C93CE01865A954F21E0FC015A
S11324502083CE01855A954F21E0DC012C93CE01D7
S11324608657954F21E0FC012083CE018F56954F6E
S113247021E0DC012C93CE018E56954F21E0FC0126
S11324802083CE018F53954F21E0DC012C93CE01A4
S11324908B53954F21E0FC012083CE018850954F4A
S11324A021E0DC012C93CE018750954F21E0FC0103
S11324B02083CE01815D944F21E0DC012C93CE0179
S11324C0805D944F21E0FC012083CE018A59944F12
S11324D021E0DC012C93CE018959944F21E0FC01C9
S11324E0208383E68E83198266C01A825DC0898147
S11324F0482F50E08A81882F90E066E3649F900122
S1132500659F300D1124AE014F5F5F4F240F351FBF
S1132510820F931F0696DC018C918823B9F489817C
S1132520682F70E08A81882F90E0AE014559544F9E
S1132530E6E3E69F9001E79F300D1124240F351F39
S1132540820F931F2E81FC0120832BC08981682F69
S113255070E08A81882F90E02981E22FF0E02A81BF
S1132560222F30E0A6E3AE9FA001AF9F500D1124AF
S1132570FE0131964E0F5F1F240F351F2A5F3F4F18
S1132580D901EC91AE014559544FF6E3F69F900101
S1132590F79F300D1124240F351F820F931FDC0188
S11325A0EC938A818F5F8A838A81863308F49FCF74
S11325B089818F5F89838981863308F496CF198254
S11325C038C08981882F90E02981222F30E0BE0114
S11325D06559744FAE014B5F584EDA01ED91FC9191
S11325E0A6E3AE9FA001AF9F500D1124460F571FC5
S11325F0240F351FF9012081835E9D4FDC012C934C
S11326008981882F90E09E012B5F384EF90120814B
S11326108A539D4FDC012C938981882F90E09E0181
S11326202153394E820F931FFC01108289818F5FE1
S113263089838981863328F2CE018B5F984EDC0131
S11326408D919C91835E9D4FFC0110829E012153CC
S1132650394ECE018B5F984EDC018D919C91820F97
S1132660931F21E0FC01208381E089839CC08E813B
S11326708C831A8223C08A81882F90E0835E9D4FC9
S1132680DC019C918C819817B0F48A81882F90E0AA
S11326909E012153394E820F931FFC0180818823B0
S11326A051F48A81882F90E0835E9D4FDC018C91E8
S11326B08C838A818D838A818F5F8A838A81863322
S11326C0D0F28D81882F90E09E012153394E820FE4
S11326D0931F21E0FC0120831B825EC08B81882F25
S11326E090E09E012153394E820F931FDC018C919F
S11326F0882309F04EC08C81282F30E08D81E82F8B
S1132700F0E08B81882F90E0BE016559744FA6E3F9
S1132710AE9FA001AF9F500D1124460F571F840F89
S1132720951FFC018081882F90E0280F391F8B8131
S1132730882F90E0835E9D4FDC018C91882F90E080
S11327402817390734F58B81882F90E02D81E22FEB
S1132750F0E02B81222F30E0BE016559744FA6E3CF
S1132760AE9FA001AF9F500D1124460F571F240F99
S1132770351FF90130812C81230F835E9D4FDC01CD
S11327802C938B81882F90E08A539D4F2D81FC01DF
S113279020838B818F5F8B838B81863308F49ECF5C
S11327A089818F5F89838981853308F460CF000034
S11327B0CA5FD84E0FB6F894DEBF0FBECDBFDF910F
S11327C0CF910895CF93DF93CDB7DEB7C554D10928
S11327D00FB6F894DEBF0FBECDBF1C8285E08D839B
S11327E085E38E831A82CE01805C9F4F25E0FC0135
S11327F02083CE01805C9F4FFC0111827EDA0E940F
S113280094000E943D0688DA8D81882F90E0F6DAE4
S11328108E81882F90E0835E9D4FFC0180818B83A5
S11328208E81898316C08A8191E0980F9A83882FBC
S113283090E09E012F5C3F4F820F931F2981FC0182
S113284020838981882F90E08A539D4FFC018081E9
S1132850898399818D81981731F78A81882F90E037
S11328609E012F5C3F4F820F931F2D81FC0120831B
S113287020D962E882E8C6D88D81882F90E0880F3D
S1132880991F865A9D4FFC018081882F90E022E099
S113289030E0AC0161E082E00E94ED098D81882F77
S11328A090E0880F991F855A9D4FFC018081882FE5
S11328B090E022E030E0AC0164E082E00E94ED09A7
S11328C08E81882F90E0880F991F865A9D4FFC01B6
S11328D08081882F90E022E030E0AC0168E082E063
S11328E00E94ED098E81882F90E0880F991F855AE8
S11328F09D4FFC018081882F90E022E030E0AC0104
S11329006BE082E00E94ED09D4D883E037D880934D
S11329100C0282E033D880930D0281E02FD880939B
S11329200E0243E061E081E0A7D842E065E081E087
S1132930A3D841E069E081E09FD88E81882F90E0A0
S1132940835E9D4FFC018081882F90E022E030E07F
S1132950AC016FE082E00E94ED0980910D028F319D
S113296008F4D1C280910C028F3108F4CCC280915A
S11329700E028F3108F4C7C28B81882F90E09E012C
S11329802F5C3F4F820F931FFC018081882F90E0C2
S1132990880F991F865A9D4FFC012081CE018E5BC2
S11329A09F4FFC0120838B81882F90E09E012F5C38
S11329B03F4F820F931FFC018081882F90E0880F86
S11329C0991F855A9D4FFC012081CE018E5B9F4F3C
S11329D0FC01218388E290E028E230E0F9012081C3
S11329E02860FC01208380E090E0A0EFB1E48F87B1
S11329F0988BA98BBA8B26E636E646E655E46F85B6
S1132A00788989899A89F5D3DC01CB018B8B9C8BDE
S1132A10AD8BBE8B20E030E040E85FE36B897C89BE
S1132A208D899E8998D288232CF481E090E0988F38
S1132A308F8B3BC020E03FEF4FE757E46B897C89E5
S1132A408D899E89D2D318163CF520E030E040E20F
S1132A5051E46F85788989899A89CBD3DC01CB01CC
S1132A60BC01CD01E4D2DC01CB01988F8F8B0FC068
S1132A7080E791E09A8F898F898D9A8D0197F1F77C
S1132A809A8F898F8F89988D0197988F8F8B8F89D3
S1132A90988D892B69F713C06B897C898D899E89F0
S1132AA0C6D2DC01CB01988F8F8B8F89988D9C8F38
S1132AB08B8F8B8D9C8D0197F1F79C8F8B8F88E288
S1132AC090E028E230E0F9012081277FFC01208397
S1132AD0CE018E5B9F4FFC018081882F90E022E025
S1132AE030E0AC0161E082E00E94ED09CE018E5B32
S1132AF09F4FFC018181882F90E022E030E0AC01FF
S1132B0064E082E00E94ED09CE018E5B9F4FFC01E0
S1132B1020818E81882F90E0880F991F865A9D4FBF
S1132B20FC018081281709F002C1CE018E5B9F4F02
S1132B30FC0121818E81882F90E0880F991F855A8E
S1132B409D4FFC018081281709F0F1C00E94630D9C
S1132B5060E080E00E94020D88E290E028E230E02C
S1132B60F90120812860FC01208380E090E0A8E442
S1132B70B2E48B879C87AD87BE8726E636E646E6B9
S1132B8055E46B857C858D859E8533D3DC01CB0133
S1132B908FA398A7A9A7BAA720E030E040E85FE395
S1132BA06FA178A589A59AA5D6D188232CF481E0B4
S1132BB090E09CA78BA73BC020E03FEF4FE757E492
S1132BC06FA178A589A59AA510D318163CF520E025
S1132BD030E040E251E46B857C858D859E8509D388
S1132BE0DC01CB01BC01CD0122D2DC01CB019CA7CD
S1132BF08BA70FC080E791E09EA78DA78DA59EA50A
S1132C000197F1F79EA78DA78BA59CA501979CA77B
S1132C108BA78BA59CA5892B69F713C06FA178A5F9
S1132C2089A59AA504D2DC01CB019CA78BA78BA50F
S1132C309CA598AB8FA78FA598A90197F1F798AB9E
S1132C408FA788E290E028E230E0F9012081277F15
S1132C50FC01208380E090E0A8ECB2E48F839887A5
S1132C60A987BA8726E636E646E655E46F81788575
S1132C7089859A85BED2DC01CB018D8F9E8FAF8F63
S1132C80B8A320E030E040E85FE36D8D7E8D8F8D4A
S1132C9098A161D188232CF481E090E09AA389A3C0
S1132CA03BC020E03FEF4FE757E46D8D7E8D8F8D65
S1132CB098A19BD218163CF520E030E040E251E4A4
S1132CC06F81788589859A8594D2DC01CB01BC011A
S1132CD0CD01ADD1DC01CB019AA389A30FC080E75C
S1132CE091E09CA38BA38BA19CA10197F1F79CA3DA
S1132CF08BA389A19AA101979AA389A389A19AA1D7
S1132D00892B69F713C06D8D7E8D8F8D98A18FD11E
S1132D10DC01CB019AA389A389A19AA19EA38DA3C7
S1132D208DA19EA10197F1F79EA38DA315CF68E70E
S1132D3088E70E94020D8B8181508B838B81882FC1
S1132D4090E09E012F5C3F4F820F931FFC01808116
S1132D50882F90E0880F991F865A9D4FFC0120818F
S1132D60CE018C5B9F4FFC0120838B81882F90E0E8
S1132D709E012F5C3F4F820F931FFC018081882F9F
S1132D8090E0880F991F855A9D4FFC012081CE0148
S1132D908C5B9F4FFC012183CE018C5B9F4FFC0118
S1132DA08081882F90E022E030E0AC0168E082E08E
S1132DB00E94ED09CE018C5B9F4FFC018181882F1D
S1132DC090E022E030E0AC016BE082E00E94ED098B
S1132DD0CE018E5B9F4FFC012081CE018C5B9F4F07
S1132DE0FC0180812817D1F488E290E00E94470E0C
S1132DF0CE01805C9F4FFC012081CE018E5B9F4FF2
S1132E00FC018081281728F481E490E00E94590E87
S1132E1066C081E490E00E946B0E61C0CE018E5BBF
S1132E209F4FFC012081CE018C5B9F4FFC01808170
S1132E30281758F588E290E00E94470ECE018E5B79
S1132E409F4FFC012181CE018C5B9F4FFC0181814E
S1132E502817B0F4CE01805C9F4FFC012181CE0184
S1132E608E5B9F4FFC018181821728F081E490E002
S1132E700E946B0E34C081E490E00E94590E2FC072
S1132E8081E490E00E946B0E2AC088E290E00E94E8
S1132E90470ECE018E5B9F4FFC012181CE018C5BDE
S1132EA09F4FFC018181821728F481E490E00E9405
S1132EB0590E15C0CE01805C9F4FFC012181CE01CB
S1132EC08E5B9F4FFC018181821728F081E490E0A2
S1132ED00E94590E04C081E490E00E946B0ECE0162
S1132EE08E5B9F4FFC012081CE01805C9F4FFC01D3
S1132EF02083CE018E5B9F4FFC012181CE01805C3B
S1132F009F4FFC01218380910D028F3170F08091DD
S1132F100C028E3150F480910E028E3130F40E94F6
S1132F20590D64E684E60E94020D80910C028F31F3
S1132F3030F00E94590D62E884E60E94020D8091EF
S1132F400E028F3108F4E0CC0E94590D64E682E849
S1132F500E94020DD9CCD4D008F481E008950CD09D
S1132F600AC102D140F0F9D030F021F45F3F19F0EA
S1132F70EBC0511134C1EEC00FD198F39923C9F3BA
S1132F805523B1F3951B550BBB27AA27621773076B
S1132F90840738F09F5F5F4F220F331F441FAA1F1F
S1132FA0A9F333D00E2E3AF0E0E830D091505040DF
S1132FB0E695001CCAF729D0FE2F27D0660F771F8D
S1132FC0881FBB1F261737074807AB07B0E809F06F
S1132FD0BB0B802DBF01FF2793585F4F2AF09E3F04
S1132FE0510568F0B1C0FBC05F3FECF3983EDCF3E1
S1132FF0869577956795B795F7959F5FC9F7880F7D
S1133000911D9695879597F90895E1E0660F771FCE
S1133010881FBB1F621773078407BA0720F0621B5F
S1133020730B840BBA0BEE1F88F7E0950895BCD0A0
S113303088F09F5790F0B92F9927B751A0F0D1F09D
S1133040660F771F881F991F1AF0BA95C9F712C027
S1133050B13081F0C3D0B1E00895C0C0672F782F9C
S11330608827B85F39F0B93FCCF386957795679593
S1133070B395D9F73EF490958095709561957F4FFF
S11330808F4F9F4F0895E89409C097FB3EF49095A5
S11330908095709561957F4F8F4F9F4F9923A9F02D
S11330A0F92F96E9BB279395F695879577956795BC
S11330B0B795F111F8CFFAF4BB0F11F460FF1BC000
S11330C06F5F7F4F8F4F9F4F16C0882311F096E993
S11330D011C0772321F09EE8872F762F05C0662341
S11330E071F096E8862F70E060E02AF09A95660FFA
S11330F0771F881FDAF7880F9695879597F90895B3
S1133100990F0008550FAA0BE0E8FEEF16161706F4
S1133110E807F907C0F012161306E407F50798F05C
S1133120621B730B840B950B39F40A2661F0232B75
S1133130242B252B21F408950A2609F4A140A695F1
S11331408FEF811D811D089597F99F6780E870E0D6
S113315060E008959FEF80EC089500240A94161609
S1133160170618060906089500240A941216130671
S1133170140605060895092E0394000C11F48823FF
S113318052F0BB0F40F4BF2B11F460FF04C06F5F1B
S11331907F4F8F4F9F4F089557FD9058440F551FF1
S11331A059F05F3F71F04795880F97FB991F61F0C5
S11331B09F3F79F087950895121613061406551F3C
S11331C0F2CF4695F1DF08C0161617061806991FA8
S11331D0F1CF86957105610508940895E894BB279D
S11331E066277727CB0197F908958ADF08F48FEFD4
S11331F008950BD0C0CFB1DF28F0B6DF18F09523C7
S113320009F0A2CFA7CF1124EACFC6DFA0F3959F80
S1133210D1F3950F50E0551F629FF001729FBB27B9
S1133220F00DB11D639FAA27F00DB11DAA1F649F65
S11332306627B00DA11D661F829F2227B00DA11D18
S1133240621F739FB00DA11D621F839FA00D611D9E
S1133250221F749F3327A00D611D231F849F600DBF
S1133260211D822F762F6A2F11249F5750408AF0F8
S1133270E1F088234AF0EE0FFF1FBB1F661F771F84
S1133280881F91505040A9F79E3F510570F05CCFC4
S1133290A6CF5F3FECF3983EDCF386957795679570
S11332A0B795F795E7959F5FC1F7FE2B880F911DA2
S11332B09695879597F90895A29FB001B39FC00191
S11332C0A39F700D811D1124911DB29F700D811D4E
S10D32D01124911D0895F894FFCF16
S10F32DA030404050506060505040403AE
S9030000FC
